{
  "_format": "hh-sol-artifact-1",
  "contractName": "Create",
  "sourceName": "contracts/Votercontract.sol",
  "abi": [
    {
      "inputs": [],
      "stateMutability": "nonpayable",
      "type": "constructor"
    },
    {
      "anonymous": false,
      "inputs": [
        {
          "indexed": true,
          "internalType": "uint256",
          "name": "candidtateId",
          "type": "uint256"
        },
        {
          "indexed": false,
          "internalType": "string",
          "name": "age",
          "type": "string"
        },
        {
          "indexed": false,
          "internalType": "string",
          "name": "name",
          "type": "string"
        },
        {
          "indexed": false,
          "internalType": "string",
          "name": "image",
          "type": "string"
        },
        {
          "indexed": false,
          "internalType": "uint256",
          "name": "votecount",
          "type": "uint256"
        },
        {
          "indexed": false,
          "internalType": "address",
          "name": "_address",
          "type": "address"
        },
        {
          "indexed": false,
          "internalType": "string",
          "name": "ipfs",
          "type": "string"
        }
      ],
      "name": "CandidateCreated",
      "type": "event"
    },
    {
      "anonymous": false,
      "inputs": [
        {
          "indexed": false,
          "internalType": "uint256",
          "name": "voter_voterId",
          "type": "uint256"
        },
        {
          "indexed": false,
          "internalType": "string",
          "name": "voter_name",
          "type": "string"
        },
        {
          "indexed": false,
          "internalType": "string",
          "name": "voter_image",
          "type": "string"
        },
        {
          "indexed": false,
          "internalType": "address",
          "name": "voter_address",
          "type": "address"
        },
        {
          "indexed": false,
          "internalType": "uint256",
          "name": "voter_allowed",
          "type": "uint256"
        },
        {
          "indexed": false,
          "internalType": "bool",
          "name": "voter_voted",
          "type": "bool"
        },
        {
          "indexed": false,
          "internalType": "uint256",
          "name": "voter_vote",
          "type": "uint256"
        },
        {
          "indexed": false,
          "internalType": "string",
          "name": "voter_ipfs",
          "type": "string"
        }
      ],
      "name": "VoterCreated",
      "type": "event"
    },
    {
      "inputs": [],
      "name": "VotingOrganizer",
      "outputs": [
        {
          "internalType": "address",
          "name": "",
          "type": "address"
        }
      ],
      "stateMutability": "view",
      "type": "function"
    },
    {
      "inputs": [],
      "name": "_candidtateId",
      "outputs": [
        {
          "internalType": "uint256",
          "name": "",
          "type": "uint256"
        }
      ],
      "stateMutability": "view",
      "type": "function"
    },
    {
      "inputs": [],
      "name": "_voterId",
      "outputs": [
        {
          "internalType": "uint256",
          "name": "",
          "type": "uint256"
        }
      ],
      "stateMutability": "view",
      "type": "function"
    },
    {
      "inputs": [
        {
          "internalType": "uint256",
          "name": "",
          "type": "uint256"
        }
      ],
      "name": "candidateAdress",
      "outputs": [
        {
          "internalType": "address",
          "name": "",
          "type": "address"
        }
      ],
      "stateMutability": "view",
      "type": "function"
    },
    {
      "inputs": [],
      "name": "getCandidateLength",
      "outputs": [
        {
          "internalType": "uint256",
          "name": "",
          "type": "uint256"
        }
      ],
      "stateMutability": "view",
      "type": "function"
    },
    {
      "inputs": [
        {
          "internalType": "address",
          "name": "_address",
          "type": "address"
        }
      ],
      "name": "getCandidatedata",
      "outputs": [
        {
          "internalType": "string",
          "name": "",
          "type": "string"
        },
        {
          "internalType": "string",
          "name": "",
          "type": "string"
        },
        {
          "internalType": "uint256",
          "name": "",
          "type": "uint256"
        },
        {
          "internalType": "string",
          "name": "",
          "type": "string"
        },
        {
          "internalType": "uint256",
          "name": "",
          "type": "uint256"
        },
        {
          "internalType": "string",
          "name": "",
          "type": "string"
        },
        {
          "internalType": "address",
          "name": "",
          "type": "address"
        }
      ],
      "stateMutability": "view",
      "type": "function"
    },
    {
      "inputs": [],
      "name": "getCandidates",
      "outputs": [
        {
          "internalType": "address[]",
          "name": "",
          "type": "address[]"
        }
      ],
      "stateMutability": "view",
      "type": "function"
    },
    {
      "inputs": [],
      "name": "getVotedVoterList",
      "outputs": [
        {
          "internalType": "address[]",
          "name": "",
          "type": "address[]"
        }
      ],
      "stateMutability": "view",
      "type": "function"
    },
    {
      "inputs": [
        {
          "internalType": "address",
          "name": "_address",
          "type": "address"
        }
      ],
      "name": "getVoterData",
      "outputs": [
        {
          "internalType": "uint256",
          "name": "",
          "type": "uint256"
        },
        {
          "internalType": "string",
          "name": "",
          "type": "string"
        },
        {
          "internalType": "string",
          "name": "",
          "type": "string"
        },
        {
          "internalType": "address",
          "name": "",
          "type": "address"
        },
        {
          "internalType": "string",
          "name": "",
          "type": "string"
        },
        {
          "internalType": "uint256",
          "name": "",
          "type": "uint256"
        },
        {
          "internalType": "bool",
          "name": "",
          "type": "bool"
        }
      ],
      "stateMutability": "view",
      "type": "function"
    },
    {
      "inputs": [],
      "name": "getVoterLength",
      "outputs": [
        {
          "internalType": "uint256",
          "name": "",
          "type": "uint256"
        }
      ],
      "stateMutability": "view",
      "type": "function"
    },
    {
      "inputs": [],
      "name": "getVoterList",
      "outputs": [
        {
          "internalType": "address[]",
          "name": "",
          "type": "address[]"
        }
      ],
      "stateMutability": "view",
      "type": "function"
    },
    {
      "inputs": [
        {
          "internalType": "address",
          "name": "_address",
          "type": "address"
        },
        {
          "internalType": "string",
          "name": "_age",
          "type": "string"
        },
        {
          "internalType": "string",
          "name": "_name",
          "type": "string"
        },
        {
          "internalType": "string",
          "name": "_image",
          "type": "string"
        },
        {
          "internalType": "string",
          "name": "_ipfs",
          "type": "string"
        }
      ],
      "name": "setCandidate",
      "outputs": [],
      "stateMutability": "nonpayable",
      "type": "function"
    },
    {
      "inputs": [
        {
          "internalType": "address",
          "name": "_candidateaddress",
          "type": "address"
        },
        {
          "internalType": "uint256",
          "name": "_candidateVoteId",
          "type": "uint256"
        }
      ],
      "name": "vote",
      "outputs": [],
      "stateMutability": "nonpayable",
      "type": "function"
    },
    {
      "inputs": [
        {
          "internalType": "uint256",
          "name": "",
          "type": "uint256"
        }
      ],
      "name": "votedVoters",
      "outputs": [
        {
          "internalType": "address",
          "name": "",
          "type": "address"
        }
      ],
      "stateMutability": "view",
      "type": "function"
    },
    {
      "inputs": [
        {
          "internalType": "uint256",
          "name": "",
          "type": "uint256"
        }
      ],
      "name": "voterAddress",
      "outputs": [
        {
          "internalType": "address",
          "name": "",
          "type": "address"
        }
      ],
      "stateMutability": "view",
      "type": "function"
    },
    {
      "inputs": [
        {
          "internalType": "address",
          "name": "_address",
          "type": "address"
        },
        {
          "internalType": "string",
          "name": "_name",
          "type": "string"
        },
        {
          "internalType": "string",
          "name": "_image",
          "type": "string"
        },
        {
          "internalType": "string",
          "name": "_ipfs",
          "type": "string"
        }
      ],
      "name": "voterRight",
      "outputs": [],
      "stateMutability": "nonpayable",
      "type": "function"
    },
    {
      "inputs": [
        {
          "internalType": "address",
          "name": "",
          "type": "address"
        }
      ],
      "name": "voters",
      "outputs": [
        {
          "internalType": "uint256",
          "name": "voter_voterId",
          "type": "uint256"
        },
        {
          "internalType": "string",
          "name": "voter_name",
          "type": "string"
        },
        {
          "internalType": "string",
          "name": "voter_image",
          "type": "string"
        },
        {
          "internalType": "address",
          "name": "voter_address",
          "type": "address"
        },
        {
          "internalType": "uint256",
          "name": "voter_allowed",
          "type": "uint256"
        },
        {
          "internalType": "bool",
          "name": "voter_voted",
          "type": "bool"
        },
        {
          "internalType": "uint256",
          "name": "voter_vote",
          "type": "uint256"
        },
        {
          "internalType": "string",
          "name": "voter_ipfs",
          "type": "string"
        }
      ],
      "stateMutability": "view",
      "type": "function"
    }
  ],
  "bytecode": "0x608060405260016000556001805534801561001957600080fd5b5033600260006101000a81548173ffffffffffffffffffffffffffffffffffffffff021916908373ffffffffffffffffffffffffffffffffffffffff1602179055506125578061006a6000396000f3fe608060405234801561001057600080fd5b506004361061010b5760003560e01c80638e945685116100a2578063b28d92ae11610071578063b28d92ae146102db578063b63c82ca146102f9578063b9be31521461032f578063c91ec7121461034d578063f7522a83146103695761010b565b80638e945685146102205780638fb4cd801461023e578063a3ec138d14610274578063b10abb36146102ab5761010b565b806338736d46116100de57806338736d46146101865780635d55f2de146101a45780635f74bbde146101d45780637831ffb3146101f05761010b565b80630361419e1461011057806305ad45a41461012c57806306a49fce1461014a5780631e55d0c314610168575b600080fd5b61012a600480360381019061012591906118cd565b610387565b005b61013461063b565b60405161014191906119a1565b60405180910390f35b610152610648565b60405161015f9190611a7a565b60405180910390f35b6101706106d6565b60405161017d91906119a1565b60405180910390f35b61018e6106dc565b60405161019b9190611aab565b60405180910390f35b6101be60048036038101906101b99190611af2565b610702565b6040516101cb9190611aab565b60405180910390f35b6101ee60048036038101906101e99190611b1f565b610741565b005b61020a60048036038101906102059190611af2565b610908565b6040516102179190611aab565b60405180910390f35b610228610947565b6040516102359190611a7a565b60405180910390f35b61025860048036038101906102539190611b5f565b6109d5565b60405161026b9796959493929190611c26565b60405180910390f35b61028e60048036038101906102899190611b5f565b610d9d565b6040516102a2989796959493929190611caa565b60405180910390f35b6102c560048036038101906102c09190611af2565b610faa565b6040516102d29190611aab565b60405180910390f35b6102e3610fe9565b6040516102f09190611a7a565b60405180910390f35b610313600480360381019061030e9190611b5f565b611077565b6040516103269796959493929190611d3d565b60405180910390f35b6103376114be565b60405161034491906119a1565b60405180910390f35b61036760048036038101906103629190611dc8565b6114c4565b005b610371611708565b60405161037e91906119a1565b60405180910390f35b3373ffffffffffffffffffffffffffffffffffffffff16600260009054906101000a900473ffffffffffffffffffffffffffffffffffffffff1673ffffffffffffffffffffffffffffffffffffffff1614610417576040517f08c379a000000000000000000000000000000000000000000000000000000000815260040161040e90611f25565b60405180910390fd5b60008081548092919061042990611f74565b91905055506000805490506000600760008773ffffffffffffffffffffffffffffffffffffffff1673ffffffffffffffffffffffffffffffffffffffff168152602001908152602001600020905060008160040154146104be576040517f08c379a00000000000000000000000000000000000000000000000000000000081526004016104b590612008565b60405180910390fd5b848160010190816104cf9190612234565b50858160030160006101000a81548173ffffffffffffffffffffffffffffffffffffffff021916908373ffffffffffffffffffffffffffffffffffffffff160217905550600181600401819055508281600701908161052e9190612234565b50838160020190816105409190612234565b508181600001819055506103e8816006018190555060008160050160006101000a81548160ff0219169083151502179055506005869080600181540180825580915050600190039060005260206000200160009091909190916101000a81548173ffffffffffffffffffffffffffffffffffffffff021916908373ffffffffffffffffffffffffffffffffffffffff1602179055507ff5f39971dd62d9929e3a9feaa6bb77fe7c7da0001babff8a65a7e51ad0201c198286868985600401548660050160009054906101000a900460ff1687600601548a60405161062b989796959493929190611caa565b60405180910390a1505050505050565b6000600580549050905090565b606060038054806020026020016040519081016040528092919081815260200182805480156106cc57602002820191906000526020600020905b8160009054906101000a900473ffffffffffffffffffffffffffffffffffffffff1673ffffffffffffffffffffffffffffffffffffffff1681526020019060010190808311610682575b5050505050905090565b60015481565b600260009054906101000a900473ffffffffffffffffffffffffffffffffffffffff1681565b6005818154811061071257600080fd5b906000526020600020016000915054906101000a900473ffffffffffffffffffffffffffffffffffffffff1681565b6000600760003373ffffffffffffffffffffffffffffffffffffffff1673ffffffffffffffffffffffffffffffffffffffff16815260200190815260200160002090508060050160009054906101000a900460ff16156107d6576040517f08c379a00000000000000000000000000000000000000000000000000000000081526004016107cd90612352565b60405180910390fd5b600081600401540361081d576040517f08c379a0000000000000000000000000000000000000000000000000000000008152600401610814906123be565b60405180910390fd5b60018160050160006101000a81548160ff0219169083151502179055508181600601819055506004339080600181540180825580915050600190039060005260206000200160009091909190916101000a81548173ffffffffffffffffffffffffffffffffffffffff021916908373ffffffffffffffffffffffffffffffffffffffff1602179055508060040154600660008573ffffffffffffffffffffffffffffffffffffffff1673ffffffffffffffffffffffffffffffffffffffff16815260200190815260200160002060040160008282546108fc91906123de565b92505081905550505050565b6004818154811061091857600080fd5b906000526020600020016000915054906101000a900473ffffffffffffffffffffffffffffffffffffffff1681565b606060048054806020026020016040519081016040528092919081815260200182805480156109cb57602002820191906000526020600020905b8160009054906101000a900473ffffffffffffffffffffffffffffffffffffffff1673ffffffffffffffffffffffffffffffffffffffff1681526020019060010190808311610981575b5050505050905090565b600060608060006060600080600760008973ffffffffffffffffffffffffffffffffffffffff1673ffffffffffffffffffffffffffffffffffffffff16815260200190815260200160002060000154600760008a73ffffffffffffffffffffffffffffffffffffffff1673ffffffffffffffffffffffffffffffffffffffff168152602001908152602001600020600101600760008b73ffffffffffffffffffffffffffffffffffffffff1673ffffffffffffffffffffffffffffffffffffffff168152602001908152602001600020600201600760008c73ffffffffffffffffffffffffffffffffffffffff1673ffffffffffffffffffffffffffffffffffffffff16815260200190815260200160002060030160009054906101000a900473ffffffffffffffffffffffffffffffffffffffff16600760008d73ffffffffffffffffffffffffffffffffffffffff1673ffffffffffffffffffffffffffffffffffffffff168152602001908152602001600020600701600760008e73ffffffffffffffffffffffffffffffffffffffff1673ffffffffffffffffffffffffffffffffffffffff16815260200190815260200160002060040154600760008f73ffffffffffffffffffffffffffffffffffffffff1673ffffffffffffffffffffffffffffffffffffffff16815260200190815260200160002060050160009054906101000a900460ff16858054610bec90612057565b80601f0160208091040260200160405190810160405280929190818152602001828054610c1890612057565b8015610c655780601f10610c3a57610100808354040283529160200191610c65565b820191906000526020600020905b815481529060010190602001808311610c4857829003601f168201915b50505050509550848054610c7890612057565b80601f0160208091040260200160405190810160405280929190818152602001828054610ca490612057565b8015610cf15780601f10610cc657610100808354040283529160200191610cf1565b820191906000526020600020905b815481529060010190602001808311610cd457829003601f168201915b50505050509450828054610d0490612057565b80601f0160208091040260200160405190810160405280929190818152602001828054610d3090612057565b8015610d7d5780601f10610d5257610100808354040283529160200191610d7d565b820191906000526020600020905b815481529060010190602001808311610d6057829003601f168201915b505050505092509650965096509650965096509650919395979092949650565b6007602052806000526040600020600091509050806000015490806001018054610dc690612057565b80601f0160208091040260200160405190810160405280929190818152602001828054610df290612057565b8015610e3f5780601f10610e1457610100808354040283529160200191610e3f565b820191906000526020600020905b815481529060010190602001808311610e2257829003601f168201915b505050505090806002018054610e5490612057565b80601f0160208091040260200160405190810160405280929190818152602001828054610e8090612057565b8015610ecd5780601f10610ea257610100808354040283529160200191610ecd565b820191906000526020600020905b815481529060010190602001808311610eb057829003601f168201915b5050505050908060030160009054906101000a900473ffffffffffffffffffffffffffffffffffffffff16908060040154908060050160009054906101000a900460ff1690806006015490806007018054610f2790612057565b80601f0160208091040260200160405190810160405280929190818152602001828054610f5390612057565b8015610fa05780601f10610f7557610100808354040283529160200191610fa0565b820191906000526020600020905b815481529060010190602001808311610f8357829003601f168201915b5050505050905088565b60038181548110610fba57600080fd5b906000526020600020016000915054906101000a900473ffffffffffffffffffffffffffffffffffffffff1681565b6060600580548060200260200160405190810160405280929190818152602001828054801561106d57602002820191906000526020600020905b8160009054906101000a900473ffffffffffffffffffffffffffffffffffffffff1673ffffffffffffffffffffffffffffffffffffffff1681526020019060010190808311611023575b5050505050905090565b60608060006060600060606000600660008973ffffffffffffffffffffffffffffffffffffffff1673ffffffffffffffffffffffffffffffffffffffff168152602001908152602001600020600101600660008a73ffffffffffffffffffffffffffffffffffffffff1673ffffffffffffffffffffffffffffffffffffffff168152602001908152602001600020600201600660008b73ffffffffffffffffffffffffffffffffffffffff1673ffffffffffffffffffffffffffffffffffffffff16815260200190815260200160002060000154600660008c73ffffffffffffffffffffffffffffffffffffffff1673ffffffffffffffffffffffffffffffffffffffff168152602001908152602001600020600301600660008d73ffffffffffffffffffffffffffffffffffffffff1673ffffffffffffffffffffffffffffffffffffffff16815260200190815260200160002060040154600660008e73ffffffffffffffffffffffffffffffffffffffff1673ffffffffffffffffffffffffffffffffffffffff168152602001908152602001600020600601600660008f73ffffffffffffffffffffffffffffffffffffffff1673ffffffffffffffffffffffffffffffffffffffff16815260200190815260200160002060050160009054906101000a900473ffffffffffffffffffffffffffffffffffffffff1686805461128190612057565b80601f01602080910402602001604051908101604052809291908181526020018280546112ad90612057565b80156112fa5780601f106112cf576101008083540402835291602001916112fa565b820191906000526020600020905b8154815290600101906020018083116112dd57829003601f168201915b5050505050965085805461130d90612057565b80601f016020809104026020016040519081016040528092919081815260200182805461133990612057565b80156113865780601f1061135b57610100808354040283529160200191611386565b820191906000526020600020905b81548152906001019060200180831161136957829003601f168201915b5050505050955083805461139990612057565b80601f01602080910402602001604051908101604052809291908181526020018280546113c590612057565b80156114125780601f106113e757610100808354040283529160200191611412565b820191906000526020600020905b8154815290600101906020018083116113f557829003601f168201915b5050505050935081805461142590612057565b80601f016020809104026020016040519081016040528092919081815260200182805461145190612057565b801561149e5780601f106114735761010080835404028352916020019161149e565b820191906000526020600020905b81548152906001019060200180831161148157829003601f168201915b505050505091509650965096509650965096509650919395979092949650565b60005481565b3373ffffffffffffffffffffffffffffffffffffffff16600260009054906101000a900473ffffffffffffffffffffffffffffffffffffffff1673ffffffffffffffffffffffffffffffffffffffff1614611554576040517f08c379a000000000000000000000000000000000000000000000000000000000815260040161154b90612484565b60405180910390fd5b6001600081548092919061156790611f74565b9190505550600060015490506000600660008873ffffffffffffffffffffffffffffffffffffffff1673ffffffffffffffffffffffffffffffffffffffff1681526020019081526020016000209050858160010190816115c79190612234565b50848160020190816115d99190612234565b50868160050160006101000a81548173ffffffffffffffffffffffffffffffffffffffff021916908373ffffffffffffffffffffffffffffffffffffffff1602179055506001548160000181905550838160030190816116399190612234565b508281600601908161164b9190612234565b50600081600401819055506003879080600181540180825580915050600190039060005260206000200160009091909190916101000a81548173ffffffffffffffffffffffffffffffffffffffff021916908373ffffffffffffffffffffffffffffffffffffffff160217905550817f978d20e26392611c02bd1a6e72cc85fa19bd1024b23c12155f8183fbc90902e787878785600401548c896040516116f7969594939291906124a4565b60405180910390a250505050505050565b6000600380549050905090565b6000604051905090565b600080fd5b600080fd5b600073ffffffffffffffffffffffffffffffffffffffff82169050919050565b600061175482611729565b9050919050565b61176481611749565b811461176f57600080fd5b50565b6000813590506117818161175b565b92915050565b600080fd5b600080fd5b6000601f19601f8301169050919050565b7f4e487b7100000000000000000000000000000000000000000000000000000000600052604160045260246000fd5b6117da82611791565b810181811067ffffffffffffffff821117156117f9576117f86117a2565b5b80604052505050565b600061180c611715565b905061181882826117d1565b919050565b600067ffffffffffffffff821115611838576118376117a2565b5b61184182611791565b9050602081019050919050565b82818337600083830152505050565b600061187061186b8461181d565b611802565b90508281526020810184848401111561188c5761188b61178c565b5b61189784828561184e565b509392505050565b600082601f8301126118b4576118b3611787565b5b81356118c484826020860161185d565b91505092915050565b600080600080608085870312156118e7576118e661171f565b5b60006118f587828801611772565b945050602085013567ffffffffffffffff81111561191657611915611724565b5b6119228782880161189f565b935050604085013567ffffffffffffffff81111561194357611942611724565b5b61194f8782880161189f565b925050606085013567ffffffffffffffff8111156119705761196f611724565b5b61197c8782880161189f565b91505092959194509250565b6000819050919050565b61199b81611988565b82525050565b60006020820190506119b66000830184611992565b92915050565b600081519050919050565b600082825260208201905092915050565b6000819050602082019050919050565b6119f181611749565b82525050565b6000611a0383836119e8565b60208301905092915050565b6000602082019050919050565b6000611a27826119bc565b611a3181856119c7565b9350611a3c836119d8565b8060005b83811015611a6d578151611a5488826119f7565b9750611a5f83611a0f565b925050600181019050611a40565b5085935050505092915050565b60006020820190508181036000830152611a948184611a1c565b905092915050565b611aa581611749565b82525050565b6000602082019050611ac06000830184611a9c565b92915050565b611acf81611988565b8114611ada57600080fd5b50565b600081359050611aec81611ac6565b92915050565b600060208284031215611b0857611b0761171f565b5b6000611b1684828501611add565b91505092915050565b60008060408385031215611b3657611b3561171f565b5b6000611b4485828601611772565b9250506020611b5585828601611add565b9150509250929050565b600060208284031215611b7557611b7461171f565b5b6000611b8384828501611772565b91505092915050565b600081519050919050565b600082825260208201905092915050565b60005b83811015611bc6578082015181840152602081019050611bab565b60008484015250505050565b6000611bdd82611b8c565b611be78185611b97565b9350611bf7818560208601611ba8565b611c0081611791565b840191505092915050565b60008115159050919050565b611c2081611c0b565b82525050565b600060e082019050611c3b600083018a611992565b8181036020830152611c4d8189611bd2565b90508181036040830152611c618188611bd2565b9050611c706060830187611a9c565b8181036080830152611c828186611bd2565b9050611c9160a0830185611992565b611c9e60c0830184611c17565b98975050505050505050565b600061010082019050611cc0600083018b611992565b8181036020830152611cd2818a611bd2565b90508181036040830152611ce68189611bd2565b9050611cf56060830188611a9c565b611d026080830187611992565b611d0f60a0830186611c17565b611d1c60c0830185611992565b81810360e0830152611d2e8184611bd2565b90509998505050505050505050565b600060e0820190508181036000830152611d57818a611bd2565b90508181036020830152611d6b8189611bd2565b9050611d7a6040830188611992565b8181036060830152611d8c8187611bd2565b9050611d9b6080830186611992565b81810360a0830152611dad8185611bd2565b9050611dbc60c0830184611a9c565b98975050505050505050565b600080600080600060a08688031215611de457611de361171f565b5b6000611df288828901611772565b955050602086013567ffffffffffffffff811115611e1357611e12611724565b5b611e1f8882890161189f565b945050604086013567ffffffffffffffff811115611e4057611e3f611724565b5b611e4c8882890161189f565b935050606086013567ffffffffffffffff811115611e6d57611e6c611724565b5b611e798882890161189f565b925050608086013567ffffffffffffffff811115611e9a57611e99611724565b5b611ea68882890161189f565b9150509295509295909350565b7f4f6e6c79204f7267616e697a65722063616e2063726561746520766f7465722060008201527f6e6f7420796f7500000000000000000000000000000000000000000000000000602082015250565b6000611f0f602783611b97565b9150611f1a82611eb3565b604082019050919050565b60006020820190508181036000830152611f3e81611f02565b9050919050565b7f4e487b7100000000000000000000000000000000000000000000000000000000600052601160045260246000fd5b6000611f7f82611988565b91507fffffffffffffffffffffffffffffffffffffffffffffffffffffffffffffffff8203611fb157611fb0611f45565b5b600182019050919050565b7f596f75206861766520616c726561647920766f74656420212100000000000000600082015250565b6000611ff2601983611b97565b9150611ffd82611fbc565b602082019050919050565b6000602082019050818103600083015261202181611fe5565b9050919050565b7f4e487b7100000000000000000000000000000000000000000000000000000000600052602260045260246000fd5b6000600282049050600182168061206f57607f821691505b60208210810361208257612081612028565b5b50919050565b60008190508160005260206000209050919050565b60006020601f8301049050919050565b600082821b905092915050565b6000600883026120ea7fffffffffffffffffffffffffffffffffffffffffffffffffffffffffffffffff826120ad565b6120f486836120ad565b95508019841693508086168417925050509392505050565b6000819050919050565b600061213161212c61212784611988565b61210c565b611988565b9050919050565b6000819050919050565b61214b83612116565b61215f61215782612138565b8484546120ba565b825550505050565b600090565b612174612167565b61217f818484612142565b505050565b5b818110156121a35761219860008261216c565b600181019050612185565b5050565b601f8211156121e8576121b981612088565b6121c28461209d565b810160208510156121d1578190505b6121e56121dd8561209d565b830182612184565b50505b505050565b600082821c905092915050565b600061220b600019846008026121ed565b1980831691505092915050565b600061222483836121fa565b9150826002028217905092915050565b61223d82611b8c565b67ffffffffffffffff811115612256576122556117a2565b5b6122608254612057565b61226b8282856121a7565b600060209050601f83116001811461229e576000841561228c578287015190505b6122968582612218565b8655506122fe565b601f1984166122ac86612088565b60005b828110156122d4578489015182556001820191506020850194506020810190506122af565b868310156122f157848901516122ed601f8916826121fa565b8355505b6001600288020188555050505b505050505050565b7f596f75206861766520616c726561647920766f74656400000000000000000000600082015250565b600061233c601683611b97565b915061234782612306565b602082019050919050565b6000602082019050818103600083015261236b8161232f565b9050919050565b7f596f7520617265206e6f7420616c6c6f77656420746f20766f74650000000000600082015250565b60006123a8601b83611b97565b91506123b382612372565b602082019050919050565b600060208201905081810360008301526123d78161239b565b9050919050565b60006123e982611988565b91506123f483611988565b925082820190508082111561240c5761240b611f45565b5b92915050565b7f4f6e6c792074686520766f74696e67206f7267616e697365722063616e20637260008201527f656174652061206e657720766f74657200000000000000000000000000000000602082015250565b600061246e603083611b97565b915061247982612412565b604082019050919050565b6000602082019050818103600083015261249d81612461565b9050919050565b600060c08201905081810360008301526124be8189611bd2565b905081810360208301526124d28188611bd2565b905081810360408301526124e68187611bd2565b90506124f56060830186611992565b6125026080830185611a9c565b81810360a08301526125148184611bd2565b905097965050505050505056fea2646970667358221220bf3ca91f6a26653ed1588485c9a1d1e4cc3c6f445f1f6b85e306a0d73906423464736f6c63430008130033",
  "linkReferences": {},
  "deployedLinkReferences": {}
}